:020000040800F2
:1000000088080020A1010008FD3C0008EB3600082C
:10001000353C0008570B0008A34A00080000000008
:10002000000000000000000000000000A73E0008E3
:100030002F0D000800000000633E0008A1430008E7
:10004000BB010008BB010008BB010008BB010008A0
:10005000BB010008BB010008BB010008BB01000890
:10006000BB010008BB010008BB010008BB01000880
:10007000BB010008BB010008BB010008BB01000870
:10008000BB010008BB010008BD090008BB01000856
:10009000BB010008BB010008BB0100083D100008BF
:1000A000BB010008BB010008BB010008BB01000840
:1000B000BB0100087944000889440008BB0100081E
:1000C000BB010008BB010008BB010008BB01000820
:1000D000BB010008BB010008BB010008BB01000810
:1000E000BB010008BB010008BB010008BB01000800
:1000F000BB010008BB010008BB010008BB010008F0
:10010000BB010008BB010008BB010008BB010008DF
:10011000BB010008BB010008BB010008BB010008CF
:10012000410C0008BB010008BB010008BB0100082E
:10013000BB0100080000000000000000BB01000837
:10014000BB010008BB010008BB010008BB0100089F
:10015000BB010008BB010008BB010008BB0100088F
:10016000BB010008BB010008BB010008BB0100087F
:10017000BB010008BB0100080000000000000000F7
:10018000BB010008BB010008DFF810D000F0D8FB6D
:1001900000480047995F0008AFF3008088080020FE
:1001A0000648804706480047FEE7FEE7FEE7FEE711
:1001B000FEE7FEE7FEE7FEE7FEE7FEE76544000830
:1001C000890100089FED1A1AF5EE000A40EE010AB7
:1001D000BDEEE00AF5EEC00A10EE100AF1EE10FADC
:1001E00038BF401E00EE100A1349F7EE001AB8EEB1
:1001F000C00A30EEC00ADFED0F0A20EE200AFCEE46
:10020000C00A10EE900AC0F3080000EE900A01EB5D
:100210008000F8EE600A90ED011A70EE600A90ED31
:10022000000A71EEE01A21EE800A00EE810A7047A2
:1002300083F9223E0000004408620008B5EEC00ABF
:10024000F1EE10FA07D2DFED1E0AB4EEE00AF1EE8D
:1002500010FAA8BF7047DFED1B0AB5EEC00A60EECA
:10026000200ABDEEE01A11EE100AF1EE10FA38BFC6
:10027000401E00EE100A1549F7EE001AB8EEC00A4B
:1002800030EEC00ADFED100A60EE200ABCEEE00A94
:1002900010EE100AC0F3080000EE100A01EB800017
:1002A000B8EE400A90ED011A70EEC00A90ED000A17
:1002B00071EEE01A21EE800A00EE810A704700001C
:1002C000CD024CB483F9223E0000004408620008CD
:1002D0002DE9F05F0546002092469B46884606467B
:1002E000814640241BE0284641464746224600F00E
:1002F00058FA53465A46C01A914110D3114618462F
:10030000224600F03FFA2D1A67EB01084F462246BD
:100310000120002100F036FA17EB00094E41201EA3
:10032000A4F10104DFDC484631462A464346BDE8D5
:10033000F09F2DE9F0410024061B254671F10006CF
:1003400005DA01240027D0EB070067EB0101161E38
:1003500073F1000605DA0027D2EB0702012567EBEF
:100360000303FFF7B5FF86460E4617469C46AC4290
:1003700004D00025D0EB050E65EB010624B100206A
:10038000D2EB000760EB030C704631463A466346F9
:10039000BDE8F081D2B201E000F8012B491EFBD28A
:1003A00070470022F6E710B513460A460446194680
:1003B000FFF7F0FF204610BD2DE9FE4F804681EA91
:1003C0000300C00F0C46009021F0004123F00045CF
:1003D000B8EB0200A94105D24046214690461C4692
:1003E0000B46024623F00040104347D0270DC7F3C9
:1003F0000A00C3F30A510290401A019040286BDAB8
:10040000C3F3130040F4801B0098924620B10023F0
:10041000D2EB030A63EB0B0B01985946C0F1400283
:10042000504600F0AFF906460D4650465946019A2F
:1004300000F0C7F910EB08006141002487EA11526F
:1004400084EAE7731A4340D0009A62B3019A012A02
:100450004FEA075215DC001B61EB02014FF000422E
:1004600002EA0752CDE90042001C41F580113246F4
:100470002B4600F0FEF903B0BDE8F08F4046214660
:10048000F9E7001B61EB0201001C41F58013001825
:100490005B412018A2F5001747EB030140EAD57035
:1004A000B6196D4111E06D084FEA360645EAC07590
:1004B0004FEA0752001B61EB0201001C41F580115D
:1004C00049084FEA30000019514132462B4603B02B
:1004D000BDE8F04F00F0BEB90098012240000023B3
:1004E000D0EB020263EBE073009821464FEAE07420
:1004F000B8EB000061EB0401E9E783F000435BE740
:1005000081F0004158E72DE9FE4F81EA030404F031
:10051000004421F0004100944FF0000B23F0004311
:1005200050EA01045ED052EA03045BD0C3F30A54DC
:10053000C1F30A552C44A4F2F3340194A0FB0254F5
:10054000C1F3130141F48011C3F3130343F4801387
:1005500001FB024400FB034E840A970A44EA8154DB
:1005600047EA8357A4FB076802958D0A05FB0785B8
:100570004FEA932C04FB0C542705029D4FEA0658C2
:1005800047EA1637B5EB08056EEB070C870E920E9F
:1005900047EA811742EA8312A7FB0201B6EB0B017F
:1005A00064EB00042B0D43EA0C335E1844EB1C5043
:1005B000DA465146E7FB0201C5F313044FEA0B3359
:1005C00043EA14534FEA0432019C43EA0603A4F1C0
:1005D0000C040294009CCDE900B400F04AF903B089
:1005E000BDE8F08F00200146F9E72DE9F04D81EAE2
:1005F000030404F0004B21F0004514464FF0000ABC
:1006000023F0004150EA050220D054EA01021DD037
:10061000C5F30A570246C5F31303C1F31300C1F330
:100620000A5640F4801543F48013A7EB0608101B0C
:10063000D64608F2FD3873EB050002D308F1010835
:1006400001E092185B41B8F1000F03DA0020014687
:10065000BDE8F08D00204FF48011064684460EE080
:10066000171B73EB050705D3121B63EB050306434A
:100670004CEA010C49084FEA300092185B4150EAFD
:100680000107EDD152EA030012D082EA040083EAA6
:100690000501084305D0101BAB4106D201220023FF
:1006A00006E000224FF0004302E06FF00102531019
:1006B0001AEB06004CEB085110EB0A0041EB0B0162
:1006C000BDE8F04D00F0C6B800F0004230F0004048
:1006D0000AD0C10D01F56071C0F3160042EA015164
:1006E000C2084007114370470020014670470000D0
:1006F00030B5041E71F1000404DB4FF000444042A9
:1007000064EB0101141E73F1000405DB1C464FF07D
:100710000043524263EB0403994208BF904230BD4C
:1007200001F0004330B421F0004150EA010206D04C
:100730000A0DA2F56072C1F31301002A02DC30BC7D
:1007400000207047440F44EAC104C100E01830BCE7
:1007500000EBC25000F047B830B50B460146002010
:100760002022012409E021FA02F59D4205D303FA73
:1007700002F5491B04FA02F52844151EA2F10102F4
:10078000F1DC30BD202A04DB203A00FA02F100201F
:1007900070479140C2F1200320FA03F319439040BF
:1007A0007047202A04DB203A21FA02F0002170472A
:1007B00021FA02F3D040C2F12002914008431946C9
:1007C0007047202A06DBCB17203A41FA02F043EAB1
:1007D000E07306E041FA02F3D040C2F120029140FA
:1007E0000843194670470029A8BF7047401C4900BC
:1007F00008BF20F00100704710B4B0FA80FC00FA86
:100800000CF050EA010404BF10BC704749B1CCF1B0
:10081000200421FA04F411FA0CF118BF012121433C
:100820000843A3EB0C01CB1D4FEA00614FEA1020F7
:1008300042BF002010BC704700EBC3501044002999
:10084000A4BF10BC7047401C490008BF20F0010045
:1008500010BC704710B5141E73F1000408DA401C78
:1008600041F1000192185B411A4301D120F00100CF
:1008700010BD2DE9F04D92469B4611B1B1FA81F2BF
:1008800002E0B0FA80F220329046FFF77BFF044688
:100890000F4640EA0A0041EA0B0153465A46084314
:1008A00013D0114653EA010019D0C8F14002504656
:1008B000FFF777FF05460E46504659464246FFF77A
:1008C00061FF084305D0012004E020463946BDE819
:1008D000F08D0020054346EAE0762C4337430A9822
:1008E0006305E40AA0EB08000022FD0A44EA47542D
:1008F0000A3002D500200146E9E7010510196941D7
:10090000DDE9084500196941BDE8F04DA2E7C1F3F2
:100910000A52C1F3130140F2FF3341F480119A42AD
:1009200002DA00200146704740F233439A42A2F2B5
:10093000334202DC5242FFF734BFFFF723BF00000F
:10094000064C074D06E0E06840F0010394E807001C
:1009500098471034AC42F6D3FFF71AFC0C6A000833
:100960002C6A000870B58C1810F8015B15F00703AD
:1009700001D110F8013B2A1106D110F8012B03E038
:1009800010F8016B01F8016B5B1EF9D12B0705D440
:100990000023521E0DD401F8013BFAE710F8013B89
:1009A000CB1A921C03E013F8015B01F8015B521EA5
:1009B000F9D5A142D8D3002070BD000010B502487F
:1009C00000F07EFE10BD00004C02002055494A6830
:1009D00022F440324A604A6843681A434A60026817
:1009E000526822F4807203685A6002685368026990
:1009F00043EA022203685A600268526822F0407299
:100A000003685A600268526883681A4303685A6030
:100A10000268926822F4006203689A600268926831
:100A2000C3681A4303689A603F4B826A9A4218D09F
:100A30000268926822F0706203689A6002689268A5
:100A4000836A1A4303689A600268926822F04052EF
:100A500003689A6002689268C36A1A4303689A60DE
:100A60000BE00268926822F0706203689A60026884
:100A7000926822F0405203689A600268926822F0FD
:100A8000020203689A6002689368027E43EA4202A7
:100A900003689A602022125CA2B10268526842F494
:100AA000006203685A600268526822F46042036878
:100AB0005A6002685368426A521E43EA423203682F
:100AC0005A6005E00268526822F4006203685A60C6
:100AD0000268D26A22F470020368DA620268D36A9A
:100AE000828B521E43EA02520368DA6202689268FD
:100AF00022F4007203689A600268936890F83020CC
:100B000043EA422203689A600268926822F4806293
:100B100003689A6002689368426943EA8222036824
:100B20009A607047002301400100000F10B52DEDC1
:100B3000028BB0EE408A0446B0EE480AFFF742FB53
:100B400084ED000AB0EE480AFFF778FB84ED010A55
:100B5000BDEC028B10BD00BFFEE7000001B52DED1E
:100B6000040B9DED010ADDED020A70EE200A9DEDF9
:100B7000000AB6EE001A00EEC10AF0EE000A20EEFE
:100B8000200AF0EE080A80EE201A80ED001A9DED92
:100B9000010ADDED020A30EE600ADFED080A20EE00
:100BA000200AF0EE000A20EE200AF0EE080A80EE9D
:100BB000201A80ED011A05B000BD0000D7B35D3FDB
:100BC000B0EE401A31EE602AF0EE421A91ED062A9C
:100BD000D1ED002A02EEA12AB0EE420A91ED042ADC
:100BE000B4EEC02AF1EE10FA04D291ED042A80EDA1
:100BF000002A0DE091ED052AB4EEC02AF1EE10FABC
:100C000004DD91ED052A80ED002A01E080ED000A67
:100C100090ED002A32EE402AD1ED032A22EE222A5C
:100C2000D1ED012A02EEA12AD1ED062A9FED033A69
:100C300042EE032AC1ED062A7047000017B7D138EB
:100C400010B5024800F0AAFE10BD0000940200207A
:100C50000146087810381823B0FBF3F20848805C8E
:100C6000C865032A05D908686FF30900001D886567
:100C700003E008686FF309008865886D704700001D
:100C8000E8610008014600208A6A8B69CBB932B15D
:100C9000012A0DD0022A03D0032A10D10EE000BF92
:100CA000CB6A03F08073B3F1807F00D1012007E0AD
:100CB000CB6AB3F1C07F00D1012001E000E000BFAA
:100CC00034E08B69B3F5005F1AD132B1012A07D045
:100CD000022A03D0032A11D10AE000BF01200EE04E
:100CE000CB6A03F08073B3F1807F00D1012006E06E
:100CF000CB6AB3F1C07F00D1012000E000BF15E056
:100D000032B1012A05D0022A04D0032A0CD103E013
:100D100000BF00BF012008E0CB6A03F08073B3F18D
:100D2000807F00D1012000E000BF00BF7047704706
:100D300070B500F06BF80446002C01DA604200E068
:100D4000204686B22B48007803282BD1002E0ADAE1
:100D5000002C01DA002400E0002427480078401C21
:100D60002549087012E040F2413086420BDD002C2C
:100D700001DA444201E040F241341F480078401C4F
:100D80001D49087002E000201B4908701A480078CD
:100D9000642803DB01201949087008E00020174986
:100DA000087004E00020154908701349087020B24B
:100DB0001349144A127821F8120012480078401C96
:100DC00010490870084600780A2801D100200870F0
:100DD0000024002504E00A4830F9150004446D1C85
:100DE0000A2DF8D30A2094FBF0F420B206490880BB
:100DF00070BD000058000020B40000209B000020BF
:100E00007004002096000020940000202DE9F05F7F
:100E100038480078002851D137480688374800689C
:100E2000406A1FFA80F93448B0F8008033480068FF
:100E3000406A1FFA80FB00202F4908802F48006875
:100E4000406A0FFA80FA0846008830B12B480068E3
:100E5000406A0FFA80FA00200880464501D0D94642
:100E600046462748006800F0100010280AD125489F
:100E7000B0F90000A9EB000140F271207043A1EB32
:100E8000001709E01F48B0F90000A9EB000140F28B
:100E90007120704301EB00174FF4FA6107FB01F07A
:100EA000C517044642F21072002320462946FFF778
:100EB00040FA04460A20A4FB004114E000200D493A
:100EC000087000240C4908800C480068406A0FFA3A
:100ED00080FA0846008830B108480068406A0FFA76
:100EE00080FA002008800748A0F800A020B2BDE8E2
:100EF000F09F00009A000020980000203C03002092
:100F00000004004092000020002004E00021054A77
:100F100022F81010401C0A28F8D30121024A11704F
:100F200070470000700400209A00002000B500F017
:100F300011F800EE100AF8EEC00A9FED041A80EED8
:100F4000810ADFED030A20EE200A00BD0000004701
:100F5000DB0F494005480068406A054A00FB02F182
:100F60008900C81701EB1040001470473C030020B3
:100F7000B88D06002648006800F01000102823D025
:100F800024480068406A00EE900AF8EE600A9FED7F
:100F9000221AC0EE811AF0EE000A61EEA00A9FED5F
:100FA0001F1A60EE810A1E48008801EE100AB8EE92
:100FB000411AF0EE001A21EE211ADFED181AB0EEF8
:100FC000600A01EE210A22E012480068406A00EE41
:100FD000900AF8EE600ADFED101A80EEA11AF0EE2A
:100FE000000A61EE200A9FED0D1A60EE810A0C489E
:100FF000008801EE100AB8EE411AF0EE001A21EE58
:10100000211ADFED061AB0EE600A01EE610A7047A0
:10101000000400403C03002000401C46DB0F494018
:10102000900000200148B0F90000704794000020B3
:1010300000200149086070472404004010B54FF4B7
:10104000807000F043FE10BD72B600BFFEE70000E6
:1010500030B50246854C8869A04200D000BF00BF71
:1010600092F83C00012801D1022030BD012082F815
:101070003C0000BF0868092816D91068C0680C78C1
:101080000A3C04EB44050724AC40A0431468E0602C
:101090000C780A3C04EB44048868A0401468E468B7
:1010A00020431468E06013E0106800690C7804EBDA
:1010B00044050724AC40A043146820610C7804EB7D
:1010C00044048868A040146824692043146820619F
:1010D0001068806B20F440101468A0631068846B63
:1010E000088A401E44EA00501468A0630879C01CB6
:1010F0000C7C001B00EB80041F20A0401468A46B34
:101100008443106884630879C01C0C7C001B00EBCE
:101110008004088880B2A0401468A46B204314683F
:10112000A063524C8869A04218D01068806820F4EF
:1011300070201468A060106880688C69204314686F
:10114000A0601068806820F440101468A0601068E7
:101150008068CC6920431468A0600BE01068806848
:1011600020F470201468A0601068806820F440109B
:101170001468A060487D30B11068406840F4806019
:101180001468606005E01068406820F480601468AE
:101190006060087D30B11068406840F48050146889
:1011A000606005E01068406820F48050146860605A
:1011B0004868012804D002280FD0032827D119E05D
:1011C000106840696FF30B00146860611068406933
:1011D000CC6820431468606126E0106880696FF372
:1011E0000B001468A06110688069CC682043146803
:1011F000A06119E01068C0696FF30B001468E0612A
:101200001068C069CC6820431468E0610CE0106885
:10121000006A6FF30B00146820621068006ACC68E3
:1012200020431468206200BF00BF114B114C1068AE
:10123000A04206D10868122803D1586840F4800003
:1012400058600C4C1068A04209D10868102802D0E0
:101250000868112803D1586840F40000586000BFA6
:10126000002082F83C0000BF00BFFEE601000F0036
:10127000002301400020014010B5044606480078D4
:10128000022802D102F0D6FF05E0034800780328C7
:1012900001D104F08FFD10BD5800002008B50246B2
:1012A00000200090401F13681860012911D0022906
:1012B0000BD0032905D004290FD11068806C009051
:1012C0000CE01068406C009008E01068006C009022
:1012D00004E01068C06B009000E000BF00BF009801
:1012E00008BD000038B50146002000900022002310
:1012F00000BF91F83C00012801D1022038BD012037
:1013000081F83C0000BF0868806800F00100A0B9C7
:101310000868806840F001000D68A86035480068E2
:10132000354DB0FBF5F000EB4000009002E0009876
:10133000401E009000980028F9D10868806800F0ED
:10134000010000284BD0086C42F20105A84340F48C
:1013500080500864086C00F4807008B9002048646C
:1013600000BF002081F83C0000BF401F0D682860CE
:10137000224C606800F01F00B0B90868806800F473
:10138000401008B9012000E00020024608684068CB
:10139000012525EA90230AB303B30868806840F466
:1013A00080000D68A86022E00868806800F44010A2
:1013B00008B9012000E000200246086840680125C5
:1013C00025EA90230E4D0868A84210D132B12BB106
:1013D0000868806840F480000D68A86007E0086C29
:1013E00040F010000864486C40F0010048640020A0
:1013F00084E700004402002040420F000023014027
:101400000020014038B50146002000900022002352
:1014100000BF91F83C00012801D1022038BD012015
:1014200081F83C0000BF0868806800F00100A0B9A6
:101430000868806840F001000D68A86038480068BE
:10144000384DB0FBF5F000EB4000009002E0009852
:10145000401E009000980028F9D10868806800F0CC
:101460000100002851D0086C42F20105A84340F465
:1014700080500864086C00F4807008B9002048644B
:1014800000BF002081F83C0000BF401F0D682860AD
:101490000868406840F080000D686860224C606811
:1014A00000F01F00B0B90868806800F4401008B967
:1014B000012000E00020024608684068012525EA76
:1014C00090230AB303B30868806840F480000D6875
:1014D000A86022E00868806800F4401008B9012084
:1014E00000E00020024608684068012525EA9023B4
:1014F0000E4D0868A84210D132B12BB1086880683F
:1015000040F480000D68A86007E0086C40F010000F
:101510000864486C40F00100486400207EE7000049
:101520004402002040420F000023014000200140FF
:1015300038B502460020009000BF92F83C00012818
:1015400001D1022038BD012082F83C0000BF0868AC
:10155000092816D91068C0680C780A3C04EB4405C9
:101560000724AC40A0431468E0600C780A3C04EB0C
:1015700044048868A0401468E46820431468E0606C
:1015800013E0106800690C7804EB44050724AC40B4
:10159000A043146820610C7804EB44048868A040E0
:1015A000146824692043146820614868072817D20A
:1015B0001068406B0C79641E04EB84051F24AC405A
:1015C000A04314686063088880B20C79641E04EB41
:1015D0008404A0401468646B20431468606331E0A5
:1015E00048680D2817D21068006B0C79E41F04EBD3
:1015F00084051F24AC40A04314682063088880B28F
:101600000C79E41F04EB8404A0401468246B20438D
:101610001468206316E01068C06A0C790D3C04EB76
:1016200084051F24AC40A0431468E062088880B29F
:101630000C790D3C04EB8404A0401468E46A204358
:101640001468E062194B1A4C1068A04206D1086871
:10165000122803D1586840F480005860144C106878
:10166000A0421CD10868102802D00868112816D1A1
:10167000586840F400005860086810280FD10D48E1
:1016800000680D4CB0FBF4F000EB800040000090CF
:1016900002E00098401E009000980028F9D100BF99
:1016A000002082F83C0000BF00BF4BE70023014050
:1016B000002001404402002040420F007047704764
:1016C0002DE9F041044600250026206807682068BF
:1016D000D0F8048007F0020508F0200695B38EB319
:1016E000206C00F0100018B9206C40F400702064E9
:1016F0002068806800F04050E8B9207ED8B92068A2
:10170000C06A00F4700020B12068806800F4806036
:1017100088B92068406820F0200021684860206C6B
:1017200020F480702064206C00F4805018B9206C84
:1017300040F0010020642046FFF7C0FF6FF0120068
:101740002168086007F0040508F08006E5B3DEB301
:10175000206C00F0100018B9206C40F40050206498
:101760002068806800F4401038BB2068806B00F46B
:10177000401020B12068806800F48060E8B92068DB
:10178000406800F48060C0B92068806800F0405074
:1017900098B9207E88B92068406820F080002168D0
:1017A0004860206C20F480502064206C00F480702D
:1017B00018B9206C40F0010020642046FFF75CFD62
:1017C0006FF00C002168086007F0010508F0400682
:1017D00085B17EB12068006800F0010050B1206C36
:1017E00040F480302064204600F050F86FF0010093
:1017F0002168086007F0200508F080667DB176B1A9
:10180000606C40F0020060646FF0200021680860A6
:101810002046FFF754FF6FF0200021680860BDE804
:10182000F081000070B5044600250CB9012070BDA0
:101830001549A06A884200D000BF206C30B920460C
:1018400000F026F80020606484F83C00206C00F072
:10185000100088B9206C20F4885040F00200206409
:101860002046FFF7B3F800206064206C20F00200EF
:1018700040F00100206400E0012500BF002084F852
:101880003C0000BF2846D2E70100000F704700006F
:1018900010B586B00446142101A8FEF782FD39492F
:1018A000206888426CD100BF002000903648006854
:1018B00040F48070344908600846006800F4807085
:1018C000009000BF00BF00BF002000902E481438D9
:1018D000006840F001002C4914390860084600688F
:1018E00000F00100009000BF00BF00BF002000908A
:1018F0000846006840F0040008600846006800F0F0
:101900000400009000BF00BFC0200190032002909F
:101910000020039001A91D4800F0E6F91020019075
:10192000032002900020039001A9194800F0DCF97F
:101930001848194908600020486000211648816055
:10194000C1604FF48061016189004161890081615A
:101950008911C161490201620021416200F03EF932
:1019600008B1FFF771FB00BF0B48A063846300BFA1
:1019700000220121122000F03BFB122000F028FB86
:1019800006B010BD00200140443802400000024073
:10199000000802401064024094020020F8B504469A
:1019A000002000908C4800684FF41651B0FBF1F70E
:1019B000A56D2E6894F85C1008208840304098B1DE
:1019C0002068006800F0040070B12068006820F012
:1019D00004002168086094F85C1008208840A86022
:1019E000606D40F00100606594F85C100120884053
:1019F000304068B12068406900F0800040B194F840
:101A00005C1001208840A860606D40F002006065B5
:101A100094F85C1004208840304068B12068006869
:101A200000F0020040B194F85C1004208840A860E7
:101A3000606D40F00400606594F85C1010208840F0
:101A4000304078B32068006800F0080050B394F884
:101A50005C1010208840A8602068006800F4802096
:101A600080B12068006800F4002028B9206CC8B15B
:101A70002046216C884715E0A06C98B12046A16CE7
:101A800088470FE02068006800F4807028B920685B
:101A9000006820F0080021680860206C10B1204622
:101AA000216C884794F85C10202088403040002842
:101AB00065D02068006800F0100000285FD094F81E
:101AC0005C1020208840A86094F83500052828D1B3
:101AD0002068006820F016002168086020684069CE
:101AE00020F0800021684861206C08B9A06C28B102
:101AF0002068006820F008002168086094F85C10F5
:101B00003F208840A860012084F8350000BF0020F5
:101B100084F8340000BF206D10B12046216D884745
:101B2000F8BD2068006800F4802080B1206800685B
:101B300000F4002028B9606C10B12046616C884721
:101B40001DE0E06BD8B12046E16B884717E02068C4
:101B5000006800F4807068B92068006820F0100008
:101B600021680860012084F8350000BF002084F857
:101B7000340000BFE06B10B12046E16B8847606D18
:101B800038B3606D00F00100F0B1052084F8350035
:101B90002068006820F001002168086000BF0098FC
:101BA000401C0090B84200D905E02068006800F0B1
:101BB00001000028F3D100BF012084F8350000BFE8
:101BC000002084F8340000BFE06C10B12046E16CC6
:101BD000884700BFA4E70000440200202DE9F0413F
:101BE0000446002500F07AF9074614B90120BDE843
:101BF000F081606A00B100BF022084F8350000BFA8
:101C0000002084F8340000BF2068006820F0010044
:101C1000216808600AE000F061F9C01B052805D9B9
:101C200020206065032084F83500E0E72068006824
:101C300000F001000028EED1206805682148054029
:101C4000D4E901010843E168084321690843616957
:101C50000843A1690843E1690843216A0843054331
:101C6000606A042803D1D4E90B01084305432068C6
:101C700005602068456925F00705606A0543606ACC
:101C800004280DD1A06A0543E06A48B12046FEF75A
:101C9000F9FF28B140206065012084F83500A6E7EF
:101CA000206845612046FEF7D3FF064694F85C1095
:101CB0003F208840B06000206065012084F8350036
:101CC000002094E73F8010F07047000010B50446F4
:101CD00004480068204020B1024804602046FFF715
:101CE000F3FF10BD143C0140F8B502460B46002539
:101CF000002400200021D6E0012606FA01F51E6826
:101D000006EA0504AC4274D11E7906F00306012EE2
:101D100004D01E7906F00306022E13D190684F00FE
:101D20000326BE40B0434F00DE68BE4030439060A3
:101D3000506801268E40B0431E79C6F300168E40CF
:101D4000304350601E7906F00306032E09D0D06898
:101D50004F000326BE40B0434F009E68BE40304354
:101D6000D0601E7906F00306022E13D1CF0802F1CF
:101D7000200656F827004E07F70E0F26BE40B04348
:101D80004F07FF0E1E69BE403043CF0802F1200608
:101D900046F8270010684F000326BE40B0431E7966
:101DA00006F003064F00BE40304310605E6806F444
:101DB0004036002E76D000BF002600963C4E366896
:101DC00046F480463A4F3E603E46366806F480460A
:101DD000009600BF00BF374E8F0856F827008E07C9
:101DE000370F0F26BE40B043334EB24202D1002619
:101DF00024E057E0314EB24201D101261EE0304EC0
:101E0000B24201D1022619E02E4EB24201D1032680
:101E100014E02D4EB24201D104260FE02B4EB24207
:101E200001D105260AE02A4EB24201D1062605E07C
:101E3000284EB24201D1072600E008268F073F0F47
:101E4000BE4030431B4E8F0846F82700224E3068B4
:101E5000A0435E6806F4801606B120431E4E306033
:101E6000361D3068A0435E6806F4001606B12043B4
:101E7000194E361D3060184E361F3068A0435E681C
:101E800006F4003606B12043134E361F3060361F6D
:101E90003068A0435E6806F4803606B120430E4EDB
:101EA000083E3060491C1029FFF426AFF8BD000041
:101EB000443802400838014000000240000402405B
:101EC00000080240000C02400010024000140240D2
:101ED00000180240001C0240083C01400148006814
:101EE0007047000038020020034800680349097861
:101EF0000844014908607047380200204002002071
:101F000010B50D48006840F400700B4908600846A1
:101F1000006840F4806008600846006840F4807003
:101F20000860032000F0A2F8032000F007F800F09A
:101F30002BF8002010BD0000003C024070B50446A4
:101F40000E4800784FF47A71B1FBF0F00C49096843
:101F5000B1FBF0F5284600F0B3FC08B1012070BDDC
:101F6000102C07D200222146501E00F041F80548EF
:101F7000046001E00120F2E70020F0E740020020C9
:101F8000440200203C02002008B500BF0020009061
:101F90000E48006840F480400C490860084600681C
:101FA00000F48040009000BF00BF00BF0020009000
:101FB000081F006840F08050091F0860084600684C
:101FC00000F08050009000BF00BF08BD44380240C0
:101FD00001460846002809DB00F01F0301229A4051
:101FE00043099B0003F1E023C3F8002100BF7047C1
:101FF0002DE9F05F80460D461646002702F064FD8D
:10200000074639462A46334601F00700C0F1070A61
:10201000BAF1040F02D94FF0040A01E0C0F1070A37
:10202000D14600F1040ABAF1070F02D24FF0000ABC
:1020300001E0A0F1030AD4464FF0010A0AFA09FAB6
:10204000AAF1010A0AEA020A0AFA0CFA4FF0010B95
:102050000BFA0CFBABF1010B0BEA030B4AEA0B0486
:102060002146404602F038FDBDE8F09F00BF00F079
:102070000702064B19684FF6FF031940044B0B4348
:1020800043EA0221014B196000BF70470CED00E0EC
:102090000000FA0570B504460D460CB9012070BD6C
:1020A0005848006800F00700A84209D255490D7051
:1020B0000846006800F00700A84201D00120EEE7C2
:1020C000207800F0020002281DD1207800F00400E2
:1020D000042805D14C48006840F4E0504A490860A3
:1020E000207800F00800082805D14748006840F42F
:1020F0006040454908604448006820F0F000A1684D
:10210000084341490860207800F00100A8B36068E6
:10211000012807D13C4808380068C0F34040B8B9EE
:102120000120BCE76068022802D06068032807D15C
:10213000354808380068C0F3406048B90120AEE770
:10214000314808380068C0F3400008B90120A6E70C
:102150002D48006820F00300616808432A490860A0
:10216000FFF7BCFE064609E0FFF7B8FE801B41F210
:102170008831884202D9032091E707E022480068AD
:1021800000F00C006168B0EB810FEDD11D480068D4
:1021900000F00700A84209D91A490D7008460068E6
:1021A00000F00700A84201D0012078E7207800F075
:1021B0000400042807D11448006820F4E050E168C6
:1021C000084311490860207800F00800082808D169
:1021D0000D48006820F46040216940EAC1000A49C6
:1021E000086000F03FF808490968C1F30311074A85
:1021F000515CC8400649086006480068FFF79EFE2B
:1022000000204CE7003C024008380240F061000822
:10221000440200203C020020014800687047000092
:102220004402002000B5FFF7F7FF04490968C1F335
:102230008221034A515CC84000BD000008380240BA
:102240000062000800B5FFF7E7FF04490968C1F321
:102250004231034A515CC84000BD000008380240CA
:10226000006200082DE9F047002400250026A14661
:102270002548006800F00C0020B1042805D008288B
:102280003AD105E0DFF8849039E0DFF8849036E059
:102290001D48001F006800F03F041B48001F006835
:1022A00000F4800078B11A481749091F0968C1F382
:1022B0008811A0FB01700146224600233846FEF734
:1022C00007F805460EE011480F49091F0968C1F3D8
:1022D0008811A0FB01700146224600233846FDF715
:1022E000F7FF05460848001F0068C0F30140401C86
:1022F0004600B5FBF6F902E0DFF8109000BF00BF22
:102300004846BDE8F0870000083802400024F40089
:1023100000127A00F8B504460CB90120F8BD207807
:1023200000F00100002874D0F948006800F00C00AB
:1023300004280DD0F648006800F00C00082813D1DE
:10234000F348001F006800F48000B0F5800F0BD147
:10235000EF4808380068C0F34040002859D0606852
:10236000002856D10120D9E700BF6068B0F5803F52
:1023700008D1E7480838006840F48030E44908395B
:1023800008601EE06068B0F5A02F0DD1E048083865
:10239000006840F48020DE4908390860084600687B
:1023A00040F4803008600CE0D9480838006820F418
:1023B0008030D749083908600846006820F480203A
:1023C000086000BF606890B1FFF788FD054606E031
:1023D000FFF784FD401B642801D903209EE7CC4809
:1023E00008380068C0F340400028F1D011E0FFF742
:1023F00075FD054606E0FFF771FD401B642801D915
:1024000003208BE7C24808380068C0F3404000282A
:10241000F1D1207800F0020002285FD1BC480068AA
:1024200000F00C0058B1BA48006800F00C00082811
:102430001CD1B748001F006800F48000B0B9B44850
:1024400008380068C0F3400020B1E068012801D0DE
:10245000012063E7AE480838006820F0F8002169E1
:1024600040EAC100AA490839086037E0E06800B3D3
:102470000120A8490860FFF731FD054606E0FFF797
:102480002DFD401B022801D9032047E7A04808384A
:102490000068C0F340000028F1D09D48083800686B
:1024A00020F0F800216940EAC10099490839086024
:1024B00014E0002097490860FFF710FD054606E08C
:1024C000FFF70CFD401B022801D9032026E79048A6
:1024D00008380068C0F340000028F1D1207800F0EF
:1024E000080008282CD16069A8B101208A49086039
:1024F000FFF7F4FC054606E0FFF7F0FC401B02285E
:1025000001D903200AE782486C300068C0F340001C
:102510000028F1D014E000207F490860FFF7DEFCBE
:10252000054606E0FFF7DAFC401B022801D903202C
:10253000F4E677486C300068C0F340000028F1D121
:10254000207800F00400042870D10027704838304B
:10255000006800F0805090B900BF002000906C48E7
:102560003830006840F080506949383108600846CA
:10257000006800F08050009000BF00BF012767484E
:10258000006800F48070B0B96448006840F480705E
:1025900062490860FFF7A2FC054606E0FFF79EFCD3
:1025A000401B022801D90320B8E65C48006800F40B
:1025B00080700028F2D000BFA068012808D15448DC
:1025C0006830006840F001005149683108601DE042
:1025D000A06805280DD14E486830006840F004001E
:1025E0004B49683108600846006840F00100086007
:1025F0000CE047486830006820F001004449683129
:1026000008600846006820F00400086000BFA06869
:10261000A8B1FFF763FC054609E0FFF75FFC401B2C
:1026200041F28831884202D9032077E626E0384813
:1026300068300068C0F340000028EED013E0FFF7D8
:102640004DFC054608E0FFF749FC401B41F288318C
:10265000884201D9032061E62D4868300068C0F344
:1026600040000028EFD1012F07D1294838300068F9
:1026700020F0805026493831086000BFA06900284A
:1026800045D02348006800F00C0008285DD0A06900
:10269000022845D100201F490866FFF71FFC0546A8
:1026A00006E0FFF71BFC401B022801D9032035E69A
:1026B000174808380068C0F340600028F1D1D4E919
:1026C00007010843616A40EA81110122A06AC2EB56
:1026D000500041EA00412C20005D41EA00600C49B5
:1026E000091F086001200B490866FFF7F7FB054644
:1026F00006E0FFF7F3FB401B022801D903200DE69B
:10270000034808380068C0F340600028F1D049E071
:102710000838024000004742800E474200700040E7
:10272000002021490866FFF7D9FB054606E0FFF7C0
:10273000D5FB401B022801D90320EFE51B480068A8
:10274000C0F340600028F2D12CE0A069012800D13C
:10275000E4E51648001D0668A069012820D006F4AB
:102760008001E06981421BD106F03F01206A81426D
:1027700016D147F6C0703040616AB0EB811F0FD1AF
:1027800006F440310122A06AC2EB5000B1EB004FC9
:1027900006D106F070612C20005DB1EB006F01D016
:1027A0000120BBE50020B9E50000474200380240A7
:1027B00010B52DED028B3248008828B130480088D2
:1027C000401E2F49088015E000202D490880FEF7A3
:1027D000AFFAFEF727FC00EE100AB8EEC00ADFEDF4
:1027E000290A20EE200AF3EE0E0A80EE201A26486F
:1027F00080ED001A2548007828B124480078401E52
:10280000224908700CE00120204908702049214825
:102810001D4AD2ED000A204A92ED000A01F0C8FCE0
:102820001E48007803280AD11D48007828B11C48AA
:102830000078401E1A49087001E003F0C3FB1948F4
:1028400090ED000ADFED0F0A20EE200ADFED160AF8
:1028500080EE201A104880ED001A104800780328F6
:102860000AD112480068FDF72FFF41EC180B53EC1A
:10287000182B0FA002F018F9BDEC028B10BD000060
:102880009C000020DB0F49408C0000209E000020AF
:1028900054040020880000208400002058000020FC
:1028A000A4000020C40000200000344328010020C0
:1028B0007B706C6F747465723A252E34667D0A00E5
:1028C00070B504462546681EB0F1807F01D3012013
:1028D0000FE0681E4FF0E02148610F214FF0FF30FC
:1028E00002F0FAF800204FF0E0218861072008612B
:1028F000002070BD10B5FFF75BFF10BD704770473B
:1029000010B50346002200BF93F83C00012801D116
:10291000022010BD012083F83C0000BF22F0FF0020
:10292000CC6840EA040222F440708C6840EA040259
:1029300022F480604C6840EA040222F400600C68D3
:1029400040EA040222F480500C6940EA040222F4B6
:1029500000504C6940EA040222F48040CC6940EA0D
:1029600004021868426400BF002083F83C0000BFE6
:1029700000BFCEE730B502460B4600BF92F83C00E0
:10298000012801D1022030BD012082F83C0000BFA7
:10299000022082F83D00106844681068816824F0C5
:1029A00070041868044310684460184D1068A84209
:1029B0001BD01068B0F1804F17D0154D1068A84299
:1029C00013D0144D1068A8420FD0134D1068A842C0
:1029D0000BD0124D1068A84207D0114D1068A842C4
:1029E00003D0104D1068A84205D121F0800158682D
:1029F000014310688160012082F83D0000BF002083
:102A000082F83C0000BF00BFBDE7000000000140AD
:102A10000004004000080040000C00400004014099
:102A2000004001400018004070B504460D4615B93D
:102A300094F842000BE0042D02D14320005D06E033
:102A4000082D02D14420005D01E04520005D0128F1
:102A500001D0012070BD1DB9022084F842000EE0B3
:102A6000042D03D102214320015508E0082D03D194
:102A700002214420015502E0022145200155042293
:102A80002946206801F085FD2068406C40F4004034
:102A9000216848641A49206888421BD02068B0F138
:102AA000804F17D017492068884213D016492068F4
:102AB00088420FD01549206888420BD014492068FD
:102AC000884207D013492068884203D01249206801
:102AD00088420CD12068806800F00706062E0CD0D2
:102AE0002068006840F001002168086005E0206867
:102AF000006840F00100216808600020AAE700009B
:102B0000000001400004004000080040000C0040AC
:102B100000040140004001400018004010B5044688
:102B20000CB9012010BD94F83D0028B9002084F8AC
:102B30003C00204600F026F8022084F83D00211DCC
:102B4000206801F0A9FC012084F8460000BF84F849
:102B50003E0001213F2001554020015541200155F3
:102B600000BF00BF012084F84200432001554420EB
:102B700001554520015500BF012084F83D0000208B
:102B8000D0E7000038B504461949206888420FD1C3
:102B900000BF002000901748006840F00100154970
:102BA00008600846006800F00100009000BF1DE0CA
:102BB00011492068884219D100BF002000900D48BB
:102BC000001F006840F004000A49091F0860084619
:102BD000006800F00400009000BF00BF0022042144
:102BE0001E20FFF705FA1E20FFF7F2F938BD00009E
:102BF000000001404438024000080040014691F8BE
:102C00003D00012801D001207047022081F83D00DD
:102C10000868C06840F001000B68D8601A4B08686B
:102C200098421BD00868B0F1804F17D0174B086846
:102C3000984213D0164B086898420FD0154B08687D
:102C400098420BD0144B0868984207D0134B086881
:102C5000984203D0124B086898420CD108688068EB
:102C600000F00702062A0CD00868006840F0010056
:102C70000B68186005E00868006840F001000B6808
:102C800018600020C0E70000000001400004004080
:102C900000080040000C00400004014000400140DA
:102CA000001800402DE9F04104460D46002700BF02
:102CB00094F83C00012802D10220BDE8F0810120F7
:102CC00084F83C0000BF022084F83D00206886683C
:102CD00026F0770626F47F4620688660286850280C
:102CE00033D00CDC202850D004DC00284BD0102836
:102CF00051D149E0302849D040284CD139E06028F2
:102D00002DD0702807D0B0F5805F03D0B0F5005FFC
:102D100041D10DE041E0D5E902136A68206801F075
:102D200049FC2068866846F077062068866034E0B3
:102D3000D5E902136A68206801F03CFC20688068CD
:102D400040F480402168886027E0EA68696820686C
:102D500001F020FD5021206801F037FC1DE0EA68F9
:102D60006968206801F029FD6021206801F02DFCD0
:102D700013E0EA686968206801F00CFD40212068D2
:102D800001F023FC09E000BF00BF00BF29682068F4
:102D900001F01BFC01E0012700BF00BF012084F807
:102DA0003D0000BF002084F83C0000BF384684E7A7
:102DB0002DE9F04104460D4614B90120BDE8F0812B
:102DC00094F83D0028B9002084F83C00204600F02B
:102DD00053F8022084F83D002068806844F207011F
:102DE000884321688860211D206801F055FB206818
:102DF000D0F80880206886692068076A286840EA59
:102E0000080840F203308643A969A86840EA012017
:102E1000064340F60C4086434FF2F0008643E969D2
:102E2000E86840EA0120064328690001296A40EA6F
:102E30000130064327F0220727F088076969686890
:102E400040EA011007432068C0F8088020688661C6
:102E500020680762012084F8460084F83E000121C2
:102E60003F200155012084F84200432001550120F4
:102E700084F83D000020A1E710B586B00446142177
:102E800001A8FDF78EFA1E492068884236D100BF9E
:102E9000002000901B48006840F0020019490860BB
:102EA0000846006800F00200009000BF00BF00BFAD
:102EB0000020009013481038006840F004001149C9
:102EC000103908600846006800F00400009000BF58
:102ED00000BFC020019002200290002003900490C7
:102EE0000220059001A90848FEF7FEFE00220221FB
:102EF0001D20FFF77DF81D20FFF76AF806B010BD12
:102F00000004004040380240000802402DE9F04330
:102F100004460D4694F83E603F20075D94F84280D9
:102F2000432010F804906DB9012E02D1B8F1010FC1
:102F300002D00120BDE8F083022084F83E0084F82E
:102F4000420025E0042D0CD1012F02D1B9F1010F6F
:102F500001D00120EEE702213F2001554320015519
:102F600016E0012E07D1012F05D1B8F1010F02D1D2
:102F7000B9F1010F01D00120DCE7022084F83E0006
:102F800002213F200155022084F8420043200155D0
:102F900015B1042D18D10BE001220021206801F0A9
:102FA000E7FA2068C06840F002002168C86022E0AB
:102FB00001220421206801F0DBFA2068C06840F09B
:102FC00004002168C86016E001220021206801F099
:102FD000CFFA01220421206801F0CAFA2068C068F3
:102FE00040F002002168C8602068C06840F004001A
:102FF0002168C86000BF00BF2068006840F0010081
:1030000021680860002095E7704710B504462068E5
:103010000069C0F34000D8B12068C068C0F3400028
:10302000B0B16FF0020021680861012020772068AC
:10303000806900F0030018B12046FFF7E5FF05E0C6
:10304000204600F0FDF8204600F0B1F9002020777E
:1030500020680069C0F38000D8B12068C068C0F360
:103060008000B0B16FF00400216808610220207771
:103070002068806900F4407018B12046FFF7C4FF53
:1030800005E0204600F0DCF8204600F090F9002032
:10309000207720680069C0F3C000D8B12068C068FC
:1030A000C0F3C000B0B16FF00800216808610420CF
:1030B00020772068C06900F0030018B12046FFF7B0
:1030C000A3FF05E0204600F0BBF8204600F06FF9B2
:1030D0000020207720680069C0F30010D8B1206874
:1030E000C068C0F30010B0B16FF010002168086133
:1030F000082020772068C06900F4407018B120468D
:10310000FFF782FF05E0204600F09AF8204600F025
:103110004EF9002020772068006900F0010058B1C6
:103120002068C06800F0010030B16FF00100216834
:103130000861204600F0C2F920680069C0F3C010A1
:1031400058B12068C068C0F3C01030B16FF0800083
:10315000216808612046FFF7D1FB20680069C0F3B1
:10316000801058B12068C068C0F3801030B16FF093
:10317000400021680861204600F0D0F9206800690D
:10318000C0F3401058B12068C068C0F3401030B19F
:103190006FF02000216808612046FFF7B0FB10BDEA
:1031A00010B586B00446142101A8FDF7FAF82049AD
:1031B000206888423AD100BF002000901D48006876
:1031C00040F002001B4908600846006800F0020059
:1031D000009000BF00BF00BF0020009008460068BC
:1031E00040F0010008600846006800F0010000900F
:1031F00000BF00BF4FF46040019002200290002009
:10320000039004900120059001A90B48FEF76CFD86
:103210004FF4E0600190022002900020039004909F
:103220000120059001A90548FEF75EFD06B010BD1E
:10323000000001403038024000040240000002401B
:1032400070472DE9F04104460D461646002700BFA1
:1032500094F83C00012802D10220BDE8F081012051
:1032600084F83C0000BF36B1042E1BD0082E31D0AC
:103270000C2E5ED145E02946206801F0AFF92068A8
:10328000806940F00800216888612068806920F02A
:1032900004002168886120688069296908432168E1
:1032A000886148E02946206801F0D0F920688069EB
:1032B00040F40060216888612068806920F48060A3
:1032C0002168886120688069296940EA01202168B5
:1032D000886130E02946206801F0F6F92068C0696D
:1032E00040F008002168C8612068C06920F004002F
:1032F0002168C8612068C069296908432168C861DC
:1033000019E02946206801F01BFA2068C06940F4E2
:1033100000602168C8612068C06920F4806021686D
:10332000C8612068C069296940EA01202168C86134
:1033300001E0012700BF00BF00BF002084F83C006F
:1033400000BF384689E710B504460CB9012010BD0E
:1033500094F83D0028B9002084F83C00204600F095
:1033600025F8022084F83D00211D206801F094F822
:10337000012084F8460000BF84F83E0001213F2070
:103380000155402001554120015500BF00BF0120DB
:1033900084F8420043200155442001554520015541
:1033A00000BF012084F83D000020D0E7704770473F
:1033B00070B504460D4615B994F83E000BE0042D97
:1033C00002D13F20005D06E0082D02D14020005DC3
:1033D00001E04120005D012801D0012070BD1DB930
:1033E000022084F83E000EE0042D03D102213F208C
:1033F000015508E0082D03D102214020015502E0CB
:1034000002214120015501222946206801F0B0F82F
:1034100023492068884203D022492068884201D18C
:10342000012000E0002028B12068406C40F40040FA
:10343000216848641A49206888421BD02068B0F18E
:10344000804F17D018492068884213D01749206848
:1034500088420FD01649206888420BD01149206855
:10346000884207D013492068884203D01249206857
:1034700088420CD12068806800F00706062E0CD028
:103480002068006840F001002168086005E02068BD
:10349000006840F001002168086000209EE70000FD
:1034A000000001400004014000040040000800400A
:1034B000000C00400040014000180040134A016821
:1034C000914222D1124909884FF6FF72914204D0ED
:1034D0000F490988491C0E4A11800E4909780329B1
:1034E00013D10A49096801F0100110290DD00A49C9
:1034F0000988491C084A1180114609884FF6FF7255
:10350000914202DB0021044A118070470004004010
:10351000980000205800002090000020704710B54F
:1035200004460CB9012010BDA06900B100E000BF45
:1035300094F83D0028B9002084F83C00204600F0B3
:1035400027F8242084F83D002068C06820F400504B
:103550002168C860204601F045F92068006920F420
:103560009040216808612068406920F02A002168A5
:1035700048612068C06840F400502168C86000209D
:103580002064202084F83D0084F83E000020CAE733
:1035900010B586B00446142101A8FCF702FF1B49B0
:1035A000206888422FD100BF002000901848006892
:1035B00040F01000164908600846006800F010004E
:1035C000009000BF00BF00BF0020009010481438DA
:1035D000006840F002000E4914390860084600688F
:1035E00000F00200009000BF00BFC0200190022048
:1035F000029000200390032004900720059001A969
:103600000448FEF771FB06B010BD00000010014039
:1036100044380240000402402DE9F84F04460E46AB
:10362000174699464FF0000A94F83D0020285AD1D9
:1036300006B117B90120BDE8F88F00BF94F83C002F
:10364000012801D10220F6E7012084F83C0000BFE8
:1036500000202064212084F83D00FEF73FFC8246D4
:10366000A784E784A068B0F5805F04D1206910B911
:103670000025B04602E035464FF0000800BF0020AC
:1036800084F83C0000BF1BE0534600228021204606
:10369000CDF8009001F0BCF908B10320CBE745B9A3
:1036A000B8F80000C0F308002168486008F102087B
:1036B00003E02878216848606D1CE08C401EE0849F
:1036C000E08C0028E0D15346002240212046CDF86E
:1036D000009001F09DF908B10320ACE7202084F8A8
:1036E0003D000020A7E70220A5E700BFFEE700009D
:1036F00000B58DB0002009900A900B900C9020210D
:1037000001A8FCF74EFE7248724908604FF4803001
:10371000486000216F48816001210161017600212C
:1037200080F82010C1626C4981620021C1600321D0
:10373000C161002180F8301001214161FEF772F86B
:1037400008B1FDF781FC06200190012002900320C2
:10375000059001200390002008905F48079000200A
:103760008DF819008DF81800049001A95948FDF74B
:103770006FFC08B1FDF768FC072001900220029061
:1037800001A95448FDF764FC08B1FDF75DFC0E206B
:1037900001900320029001A94E48FDF759FC08B1A1
:1037A000FDF752FC4B48FDF79DFD00204B4908807A
:1037B0002DE000BF47480068006800F004000428BE
:1037C000F8D101214348FDF769FD4549096801EB3E
:1037D00010104349086002213E48FDF75FFD414952
:1037E000096801EB10103F49086003213948FDF7D3
:1037F00055FD3D49096801EB10103B49086035480B
:10380000FDF770FD35480088401C34490880334876
:1038100000881028CDDB2E482E4908604FF48030F8
:10382000486000212B48816001210161017600215F
:1038300080F82010C162284981620021C160012105
:10384000C161002180F8301001214161FDF7EAFFDC
:1038500008B1FDF7F9FB0620099001200A9000202D
:103860000B9009A91B48FDF763FE08B1FDF7ECFBBF
:103870000620019001200290032005900120039072
:1038800000050890002007908DF819008DF81800A9
:10389000049001A90F48FDF7DBFB08B1FDF7D4FB4D
:1038A000072001900220029001A90A48FDF7D0FBF1
:1038B00008B1FDF7C9FB0E2001900320029001A979
:1038C0000448FDF7C5FB08B1FDF7BEFB0DB000BD18
:1038D000002001404C0200200100000F00000020E9
:1038E000480000204C0000205000002008B500BF18
:1038F000002000900A48006840F4800008490860F1
:103900000846006800F48000009000BF00BF00225D
:1039100001213820FEF76CFB3820FEF759FB08BD6B
:103920003038024000B587B0142102A8FCF739FDF9
:1039300000BF002001902948006840F0800027491E
:1039400008600846006800F08000019000BF00BFDA
:1039500000BF002001900846006840F001000860A8
:103960000846006800F00100019000BF00BF00BFE2
:10397000002001900846006840F0040008600846F6
:10398000006800F00400019000BF00BF00BF0020ED
:1039900001900846006840F0020008600846006890
:1039A00000F00200019000BF00BF08150290002047
:1039B00003900120049002A90948FEF795F94FF4FD
:1039C000807002904FF4881003900020049002A9A8
:1039D0000448FEF789F907B000BD00003038024006
:1039E000000402400008024000B595B0002011908C
:1039F0001290139014900F9010901C2108A8FCF7BF
:103A0000D0FC20216846FCF7CCFC3F483F490860C9
:103A10000020486020213D48816042F2D001C16011
:103A20004FF4807101610121416100218161FFF743
:103A300075F808B1FDF708FB4FF48050119011A9FB
:103A40003248FFF72FF908B1FDF7FEFA2F48FFF7CC
:103A50007AFC08B1FDF7F8FA20200F9000201090B2
:103A60000FA92A48FEF786FF08B1FDF7EDFA60209E
:103A70000890002009900A900B900C900D904FF444
:103A800000700E90002208A92048FFF7DAFB08B169
:103A9000FDF7DAFA042208A91C48FFF7D2FB08B1A7
:103AA000FDF7D2FA082208A91848FFF7CAFB08B1A7
:103AB000FDF7CAFA42F2CF00099000200E900C22C6
:103AC00008A91248FFF7BDFB08B1FDF7BDFA4FF496
:103AD00000600090401001908010029054200390EC
:103AE000002004904FF40050059000200790694694
:103AF0000648FEF705FF08B1FDF7A6FA0348FFF7F1
:103B00004FFB15B000BD000000000140F402002092
:103B100000B58BB0242102A8FCF743FC00200090E4
:103B20000190194819490860002048600021174891
:103B3000816042F20F71C160002101618161032047
:103B4000029000200390012004900020059008209E
:103B5000069000200790012008900020099008207E
:103B60000A9002A90948FFF723F908B1FDF76CFA9A
:103B700000200090019069460448FEF7FBFE08B162
:103B8000FDF762FA0BB000BD000400403C030020CA
:103B900000B587B000200390049005900690019036
:103BA00002901448144908605320486000211248CC
:103BB000816040F2E731C160002101618161FEF75F
:103BC000ADFF08B1FDF740FA4FF48050039003A910
:103BD0000948FFF767F808B1FDF736FA00200190B1
:103BE000029001A90448FEF7C5FE08B1FDF72CFAC2
:103BF00007B000BD000800408403002010B50B484A
:103C00000B4908604FF4E1304860002108488160AA
:103C1000C16001610C21416100218161C161FFF737
:103C20007EFC08B1FDF710FA10BD00000010014045
:103C3000CC03002000BFFEE710B5254890ED000A38
:103C4000DFED240A20EE200ADFED230A80EE201AA1
:103C500011EE104A2046FCF737FD204A03C22048E7
:103C600090ED000ADFED1B0A20EE200ADFED1A0AB4
:103C700080EE201A11EE104A2046FCF725FD194A65
:103C800003C2FDF777F9184880ED000AFDF7CAF97D
:103C900000EE100AB8EEC00ADFED0E0A20EE200A90
:103CA000F3EE0E0A80EE201A104880ED001A10483C
:103CB00090ED000A0F4880ED000A0D4890ED010AD2
:103CC0000D4880ED000A01F0B1FB01F0CBFD10BD05
:103CD000C0000020DB0F494000003443F800002002
:103CE000C400002000010020D4000020D8000020E3
:103CF00074000020DC000020E000002000BFFEE790
:103D0000334890ED000A334880ED000A324890EDC8
:103D1000000A304880ED010A304890ED000A2D4835
:103D200080ED030A2E4890ED000A2A4880ED040A2F
:103D30002C4890ED000A274880ED050A9FED2A0ADD
:103D400080ED060A294890ED000A294880ED000A16
:103D5000284890ED000A264880ED010A264890ED9B
:103D6000000A234880ED030A244890ED000A204809
:103D700080ED040A224890ED000A1D4880ED050AF6
:103D80009FED190A80ED060A1E4890ED000A1E48B4
:103D900080ED000A1D4890ED000A1B4880ED010AE5
:103DA0001B4890ED000A184880ED030A194890ED71
:103DB000000A154880ED040A174890ED000A1248E1
:103DC00080ED050A9FED080A80ED060A70470000A5
:103DD000180000201C0400200C000020100000200F
:103DE0001C00002014000020000000002C00002017
:103DF0003804002020000020240000203000002093
:103E0000280000204000002054040020340000203E
:103E100038000020440000203C00002001B52DEDBA
:103E2000040B9DED000ADDED020A20EE200ADDED17
:103E3000010A9DED031A00EE810A80ED000A9DED56
:103E4000000AB1EE400ADDED030A20EE200ADDEDA6
:103E5000010A9DED021A00EE810A80ED010A05B00B
:103E600000BD704701B52DED040B9DED020ADDED9F
:103E7000000A20EE200ADDED030A9DED011A00EE96
:103E8000C10A80ED000A9DED030ADDED000A20EE77
:103E9000200ADDED020A9DED011A00EE810A80ED97
:103EA000010A05B000BD70472DED040B0020BA4992
:103EB0000860DFEDBA5AB0EE654ADFEDB85AF0EEB1
:103EC000654ADFEDB65AB0EE655ADDED015AF5EE02
:103ED000C05AF1EE10FA01DD01200860DDED015A53
:103EE0009DED006ADFEDAE6A56EE865AB0EE006ACE
:103EF000C5EE866AF5EEC06AF1EE10FA04DDA6485A
:103F00000068801CA4490860DDED015A9DED006A3F
:103F1000DFEDA46A56EE865AB0EE006AC5EE866AF8
:103F2000F5EEC06AF1EE10FA04DD9B480068001D52
:103F3000994908609848006806287AD2DFE800F0BE
:103F4000950324415C7A81EE816ADDED005AFFEE33
:103F5000086A65EEA65ADDED016A9FED937A47EE99
:103F6000265A26EE250A81EE816ADDED005AF7EE2B
:103F7000086A65EEA65ADDED016A9FED8B7A47EE81
:103F8000265A66EE250A91E081EE816ADDED005A3F
:103F9000F7EE086A65EEA65ADDED016A9FED827ABA
:103FA00047EE265A26EE250ADDED015A9FED7C6A82
:103FB00065EE865A65EEA15A85EE816AF1EE460AF3
:103FC00074E081EE816ADDED005AFFEE086A65EE6D
:103FD000A65ADDED016A9FED747A47EE265A26EE69
:103FE000650ADDED015A9FED6E6A65EE865A65EE53
:103FF000A15AC5EE810A59E0DDED015A9FED686ACC
:1040000065EE865A65EEA15A85EE816AB1EE460AE2
:1040100081EE816ADDED005AFFEE086A65EEA65A70
:10402000DDED016A9FED607A47EE265A66EE250ABD
:104030003CE01AE0DDED015A9FED596A65EE865AC3
:1040400065EEA15A85EE810A81EE816ADDED005AA6
:10405000F7EE086A65EEA65ADDED016A9FED527A29
:1040600047EE265A66EE650A20E081EE816ADDEDB4
:10407000005AF7EE086A65EEA65ADDED016A9FED7B
:104080004A7A47EE265A26EE650A81EE816ADDED10
:10409000005AFFEE086A65EEA65ADDED016A9FED53
:1040A000427A47EE265A66EE650A00BF00BF70EE00
:1040B000203AF4EEE13AF1EE10FA09DDC0EE235AAF
:1040C000B0EE650A70EE205A80EEA56AF0EE460A60
:1040D00070EE205A71EEE55AB1EE006A85EE862A3E
:1040E000B0EE006AC0EE065A75EE822AB0EE006AA3
:1040F000C0EE865A35EEA23A2748006807282FD22C
:10410000DFE800F02E040B1219202700B0EE624AFF
:10411000F0EE424AB0EE435A22E0B0EE424AF0EEF0
:10412000434AB0EE625A1BE0B0EE424AF0EE624AF9
:10413000B0EE435A14E0B0EE434AF0EE624AB0EEFD
:10414000425A0DE0B0EE434AF0EE424AB0EE625AF7
:1041500006E0B0EE624AF0EE434AB0EE425A00BFCB
:1041600000BFFCEEC45A15EE900A80B20F490968F0
:104170004863FCEEE45A15EE900A80B20B490968D8
:104180008863FCEEC55A15EE900A80B207490968AB
:10419000C86304B070470000540000200000000015
:1041A000D7B3DD3FD7B3DDBFD7B35D3FF402002007
:1041B000B0EE401A31EE602AF0EE421A91ED062A76
:1041C00032EE212AD1ED002A22EE222AB0EE420A56
:1041D00091ED042AB4EEC02AF1EE10FA04D291ED6A
:1041E000042A80ED002A0DE091ED052AB4EEC02AE4
:1041F000F1EE10FA04DD91ED052A80ED002A01E0D0
:1042000080ED000A90ED002A32EE402AD1ED032A1B
:1042100022EE222AD1ED012A02EEA12AD1ED062AB0
:104220009FED033A42EE032AC1ED062A70470000D3
:104230006F12833A0EB54A480068401C484908602E
:1042400008460068B0F5FA6F69D801F041FE8DEDBF
:10425000000ACDED010A8DED021A42489DED021AC9
:10426000DDED010A9DED000AFCF778FC3E489FED6C
:104270003F0AFCF75BFC3E483B49D1ED011A91ED4A
:10428000001A3849D1ED010A91ED000AFFF7C6FD89
:104290009FED360A374880ED000A314890ED000A5C
:1042A000B8EE400AF6EE000A20EE200ADFED320AF0
:1042B00080EE201A314880ED001A2D4890ED000A5A
:1042C000F0EE400A2E492F482C4A92ED000AFCF7E6
:1042D00077FC274890ED010AF0EE400A2A49294868
:1042E000001D244A92ED000AFCF76AFC27481E498B
:1042F000D1ED011A91ED001A2249D1ED010A91ED9B
:10430000000AFFF7AFFDDFED221A9FED221A1F48CA
:10431000D0ED010A90ED000AFFF7C6FD1EE0002077
:104320000F4908609FED110A164880ED010A80EDE3
:10433000000AB6EE000A0F4880ED000A9FED0B0A56
:104340000E4880ED000AFCF773FE00201249096850
:104350004862FCF7D9FD0320104908700EBD00002B
:10436000B00000205C0000206C0000200000000075
:1043700074000020080000200000FA44040000201F
:104380001C0400207C000020380400206400002071
:104390000040034600000C423C030020580000206F
:1043A00010B5FDF7A1FDFEF7A5FA10BD00B593B05D
:1043B000302107A8FBF7F5FF142102A8FBF7F1FF56
:1043C00000BF002001902548006840F0805023493C
:1043D00008600846006800F08050019000BF00BFF0
:1043E00000BF002001901E48006840F480401C4936
:1043F00008600846006800F48040019000BF00BFDC
:104400000220079001200A9010200B9002200D90AE
:1044100000210E9108210F91A821109102211191E4
:104420000421129107A8FDF775FF08B1FCF70CFEF7
:104430000F20029002200390002004904FF4A0501F
:1044400005904FF480500690052102A8FDF722FE4A
:1044500008B1FCF7F9FD13B000BD00004038024080
:10446000007000400348006840F470000149086093
:104470007047000088ED00E010B50248FEF7C5FD6A
:1044800010BD00003C03002010B50248FEF7BDFD42
:1044900010BD00008403002010B50268294B98422B
:1044A0000ED0B0F1804F0BD0274B984208D0274B4D
:1044B000984205D0264B984202D0264B984203D111
:1044C00022F070024B681A431E4B984220D0B0F184
:1044D000804F1DD01C4B98421AD01C4B984217D0CD
:1044E0001B4B984214D01B4B984211D01A4B984248
:1044F0000ED01A4B98420BD0194B984208D0194B4A
:10450000984205D0184B984202D0184B984203D1DC
:1045100022F44072CB681A4322F080034C6943EACC
:10452000040202608B68C3620B688362054B984289
:1045300002D0084B984201D10B6903630123436108
:1045400010BD0000000001400004004000080040D1
:10455000000C0040000401400040014000440140C4
:104560000048014000180040001C004000200040AE
:1045700030B501F01F05012404FA05F3046A9C43D9
:104580000462046A01F01F0502FA05F52C43046277
:1045900030BD30B501F01F05042404FA05F3046AA8
:1045A0009C430462046A01F01F0502FA05F52C43DE
:1045B000046230BD30B50C46816821F47F4142EA87
:1045C000032525432943816030BD0A46816821F0D7
:1045D000700142F0070319438160704730B5056AE6
:1045E00025F001050562026A4368846924F07004BD
:1045F00024F003040D682C4322F002028D682A4344
:10460000104DA84200D103E00F4DA84206D100BFD3
:1046100022F00802CD682A4322F00402094DA84284
:1046200002D0094DA84207D123F4807323F400730C
:104630004D692B438D692B43436084614D6845630D
:10464000026230BD000001400004014030B5056A3F
:1046500025F010050562026A4368846924F4E04489
:1046600024F440740D6844EA052422F020028D6889
:1046700042EA0512124DA84200D103E0114DA842B2
:1046800007D100BF22F08002CD6842EA051222F075
:1046900040020B4DA84202D00A4DA84209D123F492
:1046A000806323F400634D6943EA85038D6943EA1F
:1046B0008503436084614D688563026230BD0000FC
:1046C000000001400004014030B5056A25F4807502
:1046D0000562026A4368C46924F0700424F003048C
:1046E0000D682C4322F400728D6842EA0522124DB7
:1046F000A84200D103E0114DA84207D100BF22F427
:104700000062CD6842EA052222F480620A4DA84286
:1047100002D00A4DA84209D123F4805323F4005358
:104720004D6943EA05138D6943EA05134360C4618B
:104730004D68C563026230BD0000014000040140C5
:1047400030B5056A25F480550562036A4468C2697C
:1047500022F4E04222F440720D6842EA052223F47A
:1047600000538D6843EA0533084DA84202D0084D36
:10477000A84204D124F480444D6944EA851444607D
:10478000C2614D680564036230BD00000000014055
:104790000004014030B50B461446026A056A25F054
:1047A00001050562816921F0F00141EA041122F05E
:1047B0000A021A438161026230BD30B50B461446CD
:1047C000056A25F0100505628169026A21F47041CD
:1047D00041EA043122F0A00242EA0312816102623E
:1047E00030BD00002DE9F84F04462068006920F430
:1047F0004050E1680843216808612169A0680843C6
:1048000061690843E169084300902068C06849F283
:104810000C618843009908432168C860206840699A
:1048200020F44070A16908432168486176492068F6
:10483000884203D075492068884203D1FDF702FD04
:10484000814602E0FDF7EEFC8146E069B0F5004FDD
:104850006CD102206168A0FB015003461920A9FB1E
:10486000007001462A463846FBF732FD6421B0FB52
:10487000F1F04FEA001A02206168A0FB01510B46DB
:104880001920A9FB00712A463846FBF721FD834613
:1048900002206168A0FB015003461920A9FB0071AA
:1048A0002A463846FBF714FD6421B0FBF1F000EB1B
:1048B000C00101EB0010ABEB8000322101EBC00026
:1048C0006421B0FBF1F000F0F8000AEB400A02208E
:1048D0006168A0FB015003461920A9FB0070014646
:1048E0002A463846FBF7F4FC834602206168A0FBA9
:1048F000015003461920A9FB00712A463846FBF7F0
:10490000E7FC6421B0FBF1F000EBC00101EB00100B
:10491000ABEB8000322101EBC0006421B0FBF1F071
:1049200000F007005044216888606AE00420616854
:10493000A0FB015003461920A9FB007001462A463E
:104940003846FBF7C5FC824604206168A0FB015095
:1049500003461920A9FB007001462A463846FBF79A
:10496000B7FC6421B0FBF1F000EBC00101EB0010DB
:10497000AAEB8000322101EB00106421B0FBF1F0C2
:1049800000F0F00A04206168A0FB017003461920C2
:10499000A9FB00513A462846FBF79AFC6421B0FB7C
:1049A000F1F00AEB001A04206168A0FB01510B46EC
:1049B0001920A9FB00712A463846FBF789FC83467B
:1049C00004206168A0FB015003461920A9FB007078
:1049D00001462A463846FBF77BFC6421B0FBF1F028
:1049E00000EBC00101EB0010ABEB8000322101EBCA
:1049F00000106421B0FBF1F000F00F00504421687A
:104A00008860BDE8F88F00000010014000140140EC
:104A10002DE9F04104460D4617469846069E34E0BF
:104A2000701C88B32EB1FDF759FAA0EB0800B04214
:104A30002BD900BF00BF21680C3151E8001F21F4C1
:104A4000D07021680C3141E80002002AF3D100BF88
:104A500000BF00BF2168143151E8001F21F00100A0
:104A60002168143141E80002002AF3D100BF202060
:104A700084F83D0084F83E0000BF002084F83C002C
:104A800000BF0320BDE8F081FFE7206800682840F0
:104A9000A84201D1012000E00020B842C0D000208F
:104AA000F0E700BFFEE700000FB4054B10B503A907
:104AB000044A029800F0F6F810BC5DF814FB000000
:104AC000B15E00084802002002480068C0F30220DE
:104AD000704700000CED00E010B5002804DB0A0769
:104AE000130E054A135406E00A07140E034A00F099
:104AF0000F031B1FD45410BD00E400E018ED00E0CC
:104B000002E008C8121F08C1002AFAD17047704796
:104B1000002001E001C1121F002AFBD170470000F4
:104B20002DE9FF5F82B00021DDE90430020DDDF8E0
:104B300040B0034318D044F61050A2F2FF32424373
:104B40001514119801281FD0A5EB0B00401C5FEA3B
:104B5000000A4FF000064E4FDFF83891B04650463D
:104B600015D5CAF1000413E0119801244AA30128C5
:104B700001D16FEA0B010298119AC0E90031C0E936
:104B8000024206B0BDE8F09FCBF10000DFE704462B
:104B90000021404A491842EB0450CDE9001012E0D0
:104BA000E00707D032463B4640464946FBF7ABFCA0
:104BB0008046894632463B4610461946FBF7A3FC21
:104BC00006460F466410002CEAD1DDE90401DDE958
:104BD0000023BAF1000F06DAFBF795FC42464B467C
:104BE000FBF791FC05E0FBF700FD42464B46FBF767
:104BF000FCFC04460E460022284BFBF779FD03D847
:104C00004FF0FF30014607E00022254B2046314699
:104C1000FBF7D2FBFBF77BFE102409E0002C0ADB3C
:104C20000A220023FBF754FB039B30321A55641E03
:104C300050EA0102F2D1641C039AC4F11103144436
:104C4000119A012A03D0012208430DD10AE008433A
:104C500004D000204FF0110B119072E7A3EB0B056D
:104C60006D1E0DE05B4504DD4FF0000205F101050E
:104C700004E003DA4FF00002A5F10105002AECD0B0
:104C800002981199C0E90231C0E9004579E70000B6
:104C9000000014400000F03F300000000000F0432E
:104CA0000000E03F2DE9FF4F95B09A468846064642
:104CB0000025EEE1252877D100242746F94A012175
:104CC000039400E0044316F8013F203B01FA03F08F
:104CD0001042F7D130782A2811D06FF02F033078A6
:104CE000A0F13002092A16D8039A44F0020402EB1C
:104CF000820203EB42021044761C0390EFE758F85F
:104D0000042B0392002A03DA504244F40054039027
:104D100044F00204761C30782E2816D116F8010FC4
:104D200044F004042A280DD06FF02F023078A0F14F
:104D30003003092B09D807EB870302EB4303C7189D
:104D4000761CF3E758F8047B761C30786C280FD07B
:104D500006DC4C2817D068280DD06A2814D104E04E
:104D6000742810D07A280FD10DE044F400140AE022
:104D700044F4801401E044F440147278824202D179
:104D800004F58014761C761C307866280BD013DC72
:104D9000582877D009DC002875D04528F6D0462859
:104DA000F4D047281AD193E118E0632835D064285D
:104DB00079D0652812D18BE1702873D008DC672880
:104DC000F1D069286FD06E280DD06F2806D1ACE0E5
:104DD00073282CD0752874D0782853D05246179950
:104DE00090476D1C54E1C4F30250022809D00328F7
:104DF0000DD0D8F8001004280DD00D6008F104087B
:104E000046E1D8F80010EA17C1E90052F6E7D8F8F1
:104E100000100D80F2E70D70F0E718F8041B8DF814
:104E2000001000208DF80100EB46012003E058F847
:104E300004BB4FF0FF3061074FF0000102D40DE0DA
:104E400009F101018946B9420FDA8145F8DB1BF807
:104E500009100029F4D108E009F1010189468142D5
:104E6000FADB1BF809100029F6D103985346A0EB92
:104E7000090721463846179A00F080FA284400EBCB
:104E8000090507E044E008E10DE01BF8010B52467C
:104E900017999047B9F10109F7D253462146384690
:104EA000179AF2E039E00A21C4F302524FF0000BE6
:104EB0000091022A06D058F8040BC117032A09D022
:104EC0000AE023E008F1070020F00702F2E80201FF
:104ED000904605E000B2C117042A01D140B2C117C3
:104EE000002906DA0A460021404261EB02012D2228
:104EF00002E0220504D52B228DF80420012203E0D4
:104F0000E20701D02022F7E7914657E00A2100E0AE
:104F100010214FF0000B00910BE010214FF0000B1F
:104F200044F004040827009103E008204FF0000B30
:104F30000090C4F30252022A05D058F8040B002155
:104F4000032A08D008E008F1070020F00702F2E881
:104F50000201904603E080B2042A00D1C0B24FF0B3
:104F6000000922072AD53278702A07D0DDF800C060
:104F70008CF0100C5CEA0B0C05D00EE040228DF892
:104F80000420012208E050EA010306D030238DF806
:104F900004308DF8052002229146009B83F008031F
:104FA00053EA0B030AD150EA010201D1620705D589
:104FB00030228DF804204FF001097F1E3278582AE4
:104FC00004D039A20C920CAA02920BE03BA2F9E7A2
:104FD0005B46009AFBF77CF90C9B9B5C029A521E85
:104FE0000292137050EA0102F2D1029804A9081A41
:104FF00000F1200B600702D524F4803400E0012783
:105000005F4502DDA7EB0B0000E0002000EB0B0189
:10501000009003984944401A0390E00306D4534695
:105020002146179A039800F0A9F90544002706E0E5
:1050300001A85246C05D179990476D1C7F1C4F45D3
:10504000F6DBE0030CD553462146179A039800F08F
:1050500095F9054404E030205246179990476D1C9D
:105060000099481E00900029F5DC08E0029802999A
:1050700052460078491C0291179990476D1CBBF16C
:105080000001ABF1010BF1DC5BE100F065F90544D7
:10509000761C307800287FF40DAE19B02846BDE8A4
:1050A000F08F0000092801003031323334353637B3
:1050B0003839616263646566000000003031323364
:1050C0003435363738394142434445460000000004
:1050D000600700D4062708F1070020F00700F0E879
:1050E0000223804603F0004C5FEA0C0001D097A039
:1050F00009E0200501D596A005E0E00701D095A0C4
:1051000001E0AFF24C001390307823F000436528A3
:105110000CD006DC452809D046281DD047287FD171
:105120003BE0662818D067287AD136E00021112F9D
:1051300001DB112000E0781CCDE9000104A90CA8D6
:10514000FFF7EEFCDDE90D010C9A4FF0000B07F1C3
:105150000109109200914EE04FF000400097CDE918
:10516000011004A90CA8FFF7DBFCDDE90D020C9B84
:105170000F994FF0000B91461093009211B9791CD2
:1051800000EB0109B7EB090003D4C0F1FF3B07F1C5
:105190000109A9EB0700019042E0012F00DA012785
:1051A0000021112F01DD112000E03846CDE900017A
:1051B00004A90CA8FFF7B4FCDDE90D010C9A0091DD
:1051C0004FF0000BB946109221070FD4009A4A45C0
:1051D00003DA914601E0A9F10109B9F1010F05DDFA
:1051E000109AA9F10101515C3029F4D0B84202DAD9
:1051F00010F1040F03DA0121CDE9011010E00028BD
:1052000003DC8344A9EB000102E0411C494500DDB9
:105210008946A0EB0B00401C01904FF0004002902B
:10522000200705D40198484502DB4FF0FF3001907C
:1052300000208DF84B0002980DF14B07B0F1004FA4
:1052400025D002200C902B200D90029800280CDA1B
:10525000404202902D200D9007E00A210298FBF7B2
:105260007BFA3031029007F8011D0C99481E0C9012
:105270000029F2DC02980028EFD1791E0D98087001
:10528000307800F0200040F0450007F8020D11A82A
:10529000C01BC01D02901398007800B1012000EBE4
:1052A0000901019801EBE071029801440398401A4A
:1052B000401E0390E00306D453462146179A0398F4
:1052C00000F05CF805441398007818B1524617991D
:1052D00090476D1CE00323D553462146179A039847
:1052E00000F04CF805441BE0BBF1000F07DB009811
:1052F000584504DD1098179910F80B0001E0179934
:1053000030205246904701980BF1010B401E05F1E9
:105310000105019004D12E205246179990476D1C2B
:10532000B9F10001A9F10109DEDC05E017F8010B74
:105330005246179990476D1C0299481E0290002909
:10534000F4DC53462146179A03989EE62D00000090
:105350002B000000200000002DE9F041044600254C
:105360001E461746880404D405E039462020B0477D
:105370006D1C641EF9D52846BDE8F0812DE9F04189
:10538000044600251E469046C80301D5302700E09C
:105390002027880404D505E041463846B0476D1CF7
:1053A000641EF9D52846BDE8F081000010B5002143
:1053B0001A48FDF7FDFF04211848FDF7F9FF082101
:1053C0001648FDF7F5FF00211448FDF72DFB0421D9
:1053D0001248FDF729FB08211048FDF725FB0020A6
:1053E0000E49096848630D49096888630B490968D3
:1053F000C8630C210948FDF7DBFF0948FCF702F8F8
:105400003C210848FDF782FD0648FDF7F7FBFEF753
:1054100077FC02200449087010BD0000F40200204F
:105420004C0200203C0300205800002010B52DED58
:105430000E8BE1480068FBF747F941EC1D0B9FED2F
:10544000DF0B53EC102BFBF75EF841EC1B0BDD4838
:105450000068FBF739F941EC1E0B9FEDDB0B53ECB9
:10546000102BFBF750F841EC1D0BD94890ED000BC9
:1054700053EC102B51EC1D0BFBF742F841EC1C0BCD
:1054800053EC1B2BFBF739F841EC1A0B9FEDD10BBA
:1054900053EC102BFBF737F841EC180BC9480068A8
:1054A000FBF712F941EC1D0B9FEDCC0B53EC102BCD
:1054B000FBF729F841EC1A0BCA480068FBF704F91E
:1054C00041EC1D0BC84890ED000B53EC102B51EC38
:1054D0001D0BFBF715F841EC1C0B53EC1A2BFBF7DB
:1054E0000CF841EC1B0B9FEDC10B53EC102BFBF7A1
:1054F0000AF841EC190B53EC182BFAF75DFFBD4A83
:1055000003C2BD4890ED000B53EC102B9FEDBB0B7D
:1055100051EC100BFAF7F7FF41EC180BB14800689B
:10552000FBF7D2F841EC1A0BAF4890ED000B53ECAF
:10553000102B51EC1A0BFAF7E0FF41EC190B53EC6E
:10554000182BFAF7DAFFAF4A03C2AF4890ED000B11
:1055500053EC102B9FEDA90B51EC100BFAF7D3FF76
:1055600041EC180B97480068FBF7AEF841EC1A0BBA
:10557000974890ED000B53EC102B51EC1A0BFAF7F7
:10558000BCFF41EC190B53EC182BFAF7B6FF9F4AFE
:1055900003C29FED9F0B53EC102B9F4890ED000B27
:1055A00051EC100BFBF7A4F802D89B4803C806E0A7
:1055B000994890ED000B51EC100B81F0004141EC4B
:1055C000190B9FED960B53EC102BFAF796FF41EC5D
:1055D000180B9FED8F0B53EC102BFBF789F80CD8B1
:1055E000904890ED000B904880ED000B8F4890EDB7
:1055F000000B8F4880ED000B2FE0824890ED000BF0
:1056000053EC102B9FED8B0B51EC100BFAF77BFF3B
:1056100041EC180B834890ED000B53EC102B51EC30
:10562000180BFAF7C9FE804A03C2784890ED000BC8
:1056300053EC102B9FED810B51EC100BFAF763FF2D
:1056400041EC180B794890ED000B53EC102B51EC0A
:10565000180BFAF7B1FE764A03C27A4890ED000BB8
:1056600053EC102B9FED650B51EC100BFAF74BFF31
:1056700041EC180B6C4890ED000B53EC102B51ECE7
:10568000180BFAF73DFF704A03C2704890ED000B0B
:1056900053EC102B9FED590B51EC100BFAF733FF25
:1056A00041EC180B624890ED000B53EC102B51ECC1
:1056B000180BFAF725FF664A03C2654890ED000B08
:1056C00053EC102B9FED430B51EC100BFAF71BFF23
:1056D00041EC180B5C4890ED000B53EC102B9FED48
:1056E000430B51EC100BFAF70EFF41EC190B53EC86
:1056F000182BFAF761FE574A03C2564890ED000B8B
:1057000053EC102B3B4890ED000B51EC100BFAF7CB
:10571000F4FE514A03C251480068FAF7D5FF41EC44
:105720001A0B9FED360B53EC102BFAF7ECFE41EC05
:10573000190B494890ED000B53EC102B51EC190B51
:10574000FAF7DEFE41EC180BFAF7EAFF444908606D
:10575000354890ED000B334880ED000B344890ED58
:10576000000B324880ED000B264890ED000B2248DC
:1057700080ED000B254890ED000B234880ED000BD9
:10578000314890ED000B2F4880ED000B304890ED34
:10579000000B2E4880ED000B084690ED000A2F48C4
:1057A00080ED000A2C4890ED000B1B4880ED000BAB
:1057B000BDEC0E8B10BD0000E0000020F819170EA4
:1057C0008464DD3FD80000209F3C2CD49AE6EF3F54
:1057D000000100203108AC1C5A6401406B3C22F0EF
:1057E000D12C2A3FD4000020F80000201086DAA730
:1057F0000565613E28010020780100206666666626
:105800006666E63F680100208001002070010020EC
:105810000000000000000000400100200000000027
:1058200000002440580100204801002060010020B1
:105830005001002000000000D01263410000004031
:10584000E17A843F9801002088010020A001002017
:10585000900100203001002038010020F0000020DD
:10586000E800002010B52DED088BFE4890ED000AF1
:10587000FD48D0ED000A30EE600AFC48D0ED000A89
:105880009FEDFB1A60EE810AFA4890ED001A00EED7
:10589000C10A10EE101A0846FAF716FFF64A03C2BC
:1058A000F24890ED000ADFEDF50A20EE200A9FEDA8
:1058B000F41AC0EE010AF34890ED000AED4890EDAD
:1058C000001A30EE410AE94890ED001ADFEDE81ABF
:1058D00021EE211AE448D0ED001A01EE210A30EE43
:1058E000800A10EE104A2046FAF7EEFEE64A03C29E
:1058F000E64890ED000B53EC102B9FEDE50B51ECBF
:10590000100BFAF700FE41EC190BD74890ED000A96
:10591000E148D0ED000A30EE600A10EE101A084699
:10592000FAF7D2FE41EC1A0B53EC192BFAF7E5FD0E
:10593000DA4A03C2DA4890ED000B53EC102B9FEDCE
:10594000D40B51EC100BFAF7DEFD41EC190BC948F2
:1059500090ED000AD348D0ED000A30EE600A10EE58
:10596000101A0846FAF7B0FE41EC1A0B53EC192B4B
:10597000FAF7C3FDCC4A03C29FEDCC0B53EC102BBE
:10598000CC4890ED000B51EC100BFAF7B1FE02D8A9
:10599000C84803C806E0C74890ED000B51EC100B57
:1059A00081F0004141EC1B0B9FEDC30B53EC102B1E
:1059B000FAF7A3FD41EC190B9FEDBC0B53EC102B38
:1059C000BF4890ED000B51EC100BFAF791FE02D896
:1059D000BB4803C806E0BA4890ED000B51EC100B31
:1059E00081F0004141EC1B0B9FEDB30B53EC102BEE
:1059F000FAF783FD41EC1A0B53EC192BFAF778FEFA
:105A000024D89FEDAA0B53EC102BAD4890ED000B62
:105A100051EC100BFAF76CFE02D8A94803C806E057
:105A2000A74890ED000B51EC100B81F0004141ECC8
:105A30001A0B9FEDA10B53EC102BFAF75EFD41EC16
:105A4000190BFAF76DFE08EE100A23E09FED970B95
:105A500053EC102B974890ED000B51EC100BFAF71C
:105A600047FE02D8934803C806E0924890ED000B29
:105A700051EC100B81F0004141EC1A0B9FED8E0BA5
:105A800053EC102BFAF739FD41EC190BFAF748FEED
:105A900008EE100AB5EEC08AF1EE10FA0CDB894868
:105AA00090ED000B884880ED000B884890ED000BCE
:105AB000874880ED000B2FE0784890ED000B53EC09
:105AC000102B9FED840B51EC100BFAF71CFD41ECF1
:105AD000190B7C4890ED000B53EC102B51EC190B7B
